:020000040000FA
:100000008C6A8C8E8C888C8C956A958A8C90640E08
:1000100068EC00F08C80640E68EC00F05FEC00F09F
:1000200072EC01F0800E7FEC00F0090E7FEC00F026
:10003000920E7FEC00F01B0E7FEC00F0A40E7FEC24
:1000400000F02D0E7FEC00F0B60E7FEC00F03F0EBE
:100050007FEC00F0C00E7FEC00F0490E7FEC00F06A
:10006000D20E7FEC00F05B0E7FEC00F0E40E7FEC34
:1000700000F06D0E7FEC00F0F60E7FEC00F07F0ECE
:100080007FEC00F092EC02F092EC02F046EF00F010
:100090004DEC00F056EC00F012008C9E800E63ECEC
:1000A00000F0005063EC00F08C8E12008C9E000E6D
:1000B00063EC00F0015063EC00F08C8E1200689C41
:1000C000320E676E12006A6EA1AAFED7A19A1200C4
:1000D000106EFA0E6FEC00F0102EFBD712000E6EB1
:1000E0000E3A0F0E0E140F6EF00E0E1679EC00F095
:0C00F0001200000E0E060F5AFDE2120076
:0200FC00000002
:0200FE00026E90
:10010000410E006E02AC2BD0010E016E48EC00F0E7
:1001100002AE27D0C00E0B6E070E0214640D0A0E3D
:10012000F324076E096E000EF420036E056E500E68
:100130000926000E0522024202420240070B320D40
:10014000140EF324086E0A6E000EF420046E066E80
:100150000A0E0A26000E0622B3EC00F01200000E72
:10016000D4D7070ED8D7910E006E07C001F048EC27
:1001700000F0920E006E03C001F048EC00F0930E08
:10018000006E08C001F048EC00F0940E006E04C050
:1001900001F048EC00F0950E006E09C001F048EC4B
:1001A00000F0960E006E05C001F048EC00F0970ECE
:1001B000006E0AC001F048EC00F0980E006E06C018
:1001C00001F048EC00F0A10E006E020E016E48EC4A
:1001D00000F0A20E006E000E016E48EC00F0A30EBF
:1001E000006E020E016E48EC00F0A40E006E000ED0
:1001F000016E48EC00F0630E006E070E0B14016EEA
:1002000048EC00F0640E006E0B420B420B42070EEE
:100210000B14016E48EC00F0650E006E0B420B42B1
:10022000030E0B14016E48EC00F0A00E006EE00E01
:10023000016E48EC00F0010E68EC00F01200910E27
:10024000006E000E016E48EC00F0920E006E000E83
:10025000016E016E48EC00F0930E006E000E016E10
:10026000016E48EC00F0940E006E000E016E016EFF
:1002700048EC00F0950E006E1F0E016E016E48EC0A
:1002800000F0960E006E030E016E016E48EC00F059
:10029000970E006EDF0E016E016E48EC00F0980EB6
:1002A000006E010E016E016E48EC00F0630E006EF0
:1002B000070E016E48EC00F0640E006E070E016E32
:1002C00048EC00F0650E006E030E016E48EC00F085
:1002D000900E006E800E016E48EC00F0010E68EC8E
:1002E00000F0120011EC02F0100E006E0C0E016E08
:1002F00048EC00F0040E006E810E016E48EC00F038
:10030000010E68EC00F0140E006E630E016E48ECF6
:1003100000F0150E006E000E016E48EC00F0160E97
:10032000006E030E016E48EC00F0170E006E030E17
:10033000016E48EC00F0180E006E0B0E016E48ECDA
:1003400000F0190E006EDF0E016E48EC00F01A0E80
:10035000006E010E016E48EC00F01B0E006E1F0EC9
:10036000016E48EC00F01C0E006E000E016E48ECB1
:1003700000F01D0E006E160E016E48EC00F01E0E11
:10038000006E000E016E48EC00F01F0E006E010EB4
:10039000016E48EC00F0300E006E000E016E48EC6D
:1003A00000F0310E006E000E016E48EC00F0340ECD
:1003B000006E1F0E016E48EC00F0350E006E030E4D
:1003C000016E48EC00F0320E006E000E016E48EC3B
:1003D00000F0330E006E000E360E006EDF0E016E62
:1003E00048EC00F0370E006E010E016E48EC00F094
:1003F0008E0E006E800E016E48EC00F0FA0E68EC76
:1004000000F0FA0E68EC00F025EC02F02CEC02F0A3
:1004100033EC02F03AEC02F041EC02F085EC02F031
:100420001200880E006E000E0B0F016E48EC00F0FB
:10043000010E68EC00F0890E006E020E016E48ECB1
:1004400000F0010E68EC00F01200010E006E800E4C
:10045000016E48EC00F01200C70E006E010E016E36
:1004600048EC00F012008A0E006E8A0E016E48EC15
:1004700000F012008B0E006EFF0E016E48EC00F0D3
:100480001200380E006E000E016E48EC00F0390EBE
:10049000006E000E016E48EC00F03A0E006E000E89
:1004A000016E48EC00F03B0E006E000E016E48EC51
:1004B00000F03C0E006E1F0E016E48EC00F03D0E89
:1004C000006E030E016E48EC00F03E0E006EDF0E73
:1004D000016E48EC00F03F0E006E010E016E48EC1C
:1004E00000F0520E006EC00E016E48EC00F01200DB
:1004F000260E006E0CC001F048EC00F0270E006ED6
:100500000DC001F048EC00F01200200E006E800ECD
:10051000016E48EC00F0400E006E800E016E48EC5B
:1005200000F01200DF0E0C6E010E0D6E000E78EC66
:1005300002F0050E68EC00F00C060D5AF8E212000D
:020000040030CA
:0100000015EA
:0100010013EB
:010002007F7E
:010003007F7D
:01000400F902
:010005008B6F
:010006009168
:01000800FFF8
:01000900C036
:01000A00FFF6
:01000B00E014
:01000C00FFF4
:01000D0040B2
:00000001FF
