:020000040000FA
:020000000000FE
:0E0002008C6A956A958A8C8E8C90640E31EC17
:1000100000F08C80640E31EC00F028EC00F00FEF63
:1000200000F016EC00F01FEC00F012008C9E800E29
:100030002CEC00F0000E2CEC00F08C8E12008C9E4C
:10004000000E2CEC00F0010E2CEC00F08C8E120057
:10005000689C320E676E12006A6EA1AAFED7A19A42
:100060001200046EFA0E38EC00F0042EFBD71200DA
:10007000026E023A0F0E0214036EF00E021642ECEC
:0E00800000F01200000E0206035AFDE212000C
:020000040030CA
:0100000015EA
:0100010013EB
:010002007F7E
:010003007F7D
:01000400F902
:010005008B6F
:010006009168
:01000800FFF8
:01000900C036
:01000A00FFF6
:01000B00E014
:01000C00FFF4
:01000D0040B2
:00000001FF
