:020000040000FA
:100000008C6A8C8E8C888C8C956A958A8C90640E08
:100010003CEC00F08C80640E3CEC00F033EC00F023
:10002000A4EC01F0FFEC03F047EC04F054EC04F016
:10003000BEEC02F01AEF00F021EC00F02AEC00F028
:1000400012008C9E800E37EC00F0005037EC00F070
:100050008C8E12008C9E000E37EC00F0015037ECB5
:1000600000F08C8E1200689C320E676E12006A6E71
:10007000A1AAFED7A19A12001C6EFA0E43EC00F062
:100080001C2EFBD712001A6E1A3A0F0E1A141B6E92
:10009000F00E1A164DEC00F01200000E1A061B5A54
:0400A000FDE212006B
:0200A40000005A
:0A00A600026E02AC33D0C00E0B6EE8
:1000B000070E0214640D0A0EF324076E096E000E7B
:1000C000F420036E056E500E0926000E0522024232
:1000D00002420240070B320D140EF324086E0A6E22
:1000E000000EF420046E066E0A0E0A26000E06228A
:1000F000D5EC00F01200410E006E000E016E1CECFB
:1001000000F01200410E006E010E016E1CEC00F0BA
:100110001200070ECCD7900E146E010E156E000E55
:10012000BAEC00F0020E3CEC00F01406155AF8E2AE
:10013000167016A005D082EC00F0A3EC00F01200BF
:100140007BEC00F0FAD7000E076E000E036E000E77
:10015000086E000E046E1F0E096E030E056E900EE3
:100160000A6E010E066E0B6AD5EC00F0050E3CEC33
:1001700000F01200260E006E14C001F016B0CDEC97
:1001800000F01CEC00F0270E006E15C001F016B058
:10019000D1EC00F01CEC00F01200900E1424016E63
:1001A0001200010E1520016E1200910E006E07C0A4
:1001B00001F01CEC00F0920E006E03C001F01CEC8C
:1001C00000F0930E006E08C001F01CEC00F0940EDD
:1001D000006E04C001F01CEC00F0950E006E09C02A
:1001E00001F01CEC00F0960E006E05C001F01CEC56
:1001F00000F0970E006E0AC001F01CEC00F0980EA3
:10020000006E06C001F01CEC00F0A10E006E050EA1
:10021000016E1CEC00F0A20E006E000E016E1CECD4
:1002200000F0A30E006E050E016E1CEC00F0A40E93
:10023000006E000E016E1CEC00F0630E006E070EE7
:100240000B14016E1CEC00F0640E006E0B420B42AE
:100250000B42070E0B14016E1CEC00F0650E006ED5
:100260000B420B42030E0B14016E1CEC00F0A00EAF
:10027000006EE00E016E1CEC00F0010E3CEC00F094
:100280001200910E006E000E016E10C001F01CEC09
:1002900000F0920E006E000E016E0CC001F0016EB7
:1002A0001CEC00F0930E006E000E016E11C001F008
:1002B000016E1CEC00F0940E006E000E016E0DC07D
:1002C00001F0016E1CEC00F0950E006E1F0E016E29
:1002D00012C001F0016E1CEC00F0960E006E030ED1
:1002E000016E0EC001F0016E1CEC00F0970E006E66
:1002F000DF0E016E13C001F0016E1CEC00F0980ED1
:10030000006E010E016E0FC001F0016E1CEC00F0DA
:10031000630E006E070E016E1CEC00F0640E006EA2
:10032000070E016E1CEC00F0650E006E030E016EF0
:100330001CEC00F0900E006E800E016E1CEC00F0C4
:10034000010E3CEC00F012004AEC02F0100E006EC0
:100350000C0E016E1CEC00F0040E006E810E016E9E
:100360001CEC00F0010E3CEC00F0140E006E630E6D
:10037000016E1CEC00F0150E006E000E016E1CEC00
:1003800000F0160E006E030E016E1CEC00F0170E4E
:10039000006E030E016E1CEC00F0180E006E0B0ECA
:1003A000016E1CEC00F0190E006EDF0E016E1CECED
:1003B00000F01A0E006E010E016E1CEC00F01B0E18
:1003C000006E1F0E016E1CEC00F01C0E006E000E85
:1003D000016E1CEC00F01D0E006E160E016E1CEC82
:1003E00000F01E0E006E000E016E1CEC00F01F0EE1
:1003F000006E010E016E1CEC00F0300E006E000E5F
:10040000016E1CEC00F0310E006E000E016E1CEC53
:1004100000F0340E006E1F0E016E1CEC00F0350E65
:10042000006E030E016E1CEC00F0320E006E000E2A
:10043000016E1CEC00F0330E006E000E360E006EE6
:10044000DF0E016E1CEC00F0370E006E010E016E27
:100450001CEC00F08E0E006EC00E016E1CEC00F065
:10046000FA0E3CEC00F0FA0E3CEC00F05EEC02F010
:1004700065EC02F06CEC02F073EC02F07AEC02F046
:10048000B1EC02F0169082EC00F0A3EC00F07BECF3
:1004900000F01200880E006E000E0B0F016E1CECB7
:1004A00000F0010E3CEC00F0890E006E020E016EB1
:1004B0001CEC00F0010E3CEC00F01200010E006E8E
:1004C000800E016E1CEC00F01200C70E006E010ED3
:1004D000016E1CEC00F012008A0E006E8A0E016E96
:1004E0001CEC00F012008B0E006EFF0E016E1CEC77
:1004F00000F01200380E006E000E016E1CEC00F0D1
:10050000390E006E000E016E1CEC00F03A0E006E0B
:10051000000E016E1CEC00F03B0E006E000E016E32
:100520001CEC00F03C0E006E1F0E016E1CEC00F087
:100530003D0E006E030E016E1CEC00F03E0E006ED0
:10054000900E016E1CEC00F03F0E006E010E016E6D
:100550001CEC00F0520E006EC00E016E1CEC00F0A0
:100560001200200E006E800E016E1CEC00F0400E9A
:0C057000006E800E016E1CEC00F012000A
:04057C00000E53EC2E
:1005800000F0090E53EC00F0120E53EC00F01B0EBD
:1005900053EC00F0240E53EC00F02D0E53EC00F061
:1005A000360E53EC00F03F0E53EC00F08BEC00F0F5
:1005B000470E53EC00F04E0E53EC00F0550E53EC8A
:1005C00000F05C0E53EC00F0630E53EC00F06A0E8A
:1005D00053EC00F0710E53EC00F0780E53EC00F089
:1005E0008BEC00F0000E53EC00F0090E53EC00F021
:1005F000120E53EC00F01B0E53EC00F0240E53ECE3
:1006000000F02D0E53EC00F0360E53EC00F03F0ED0
:1006100053EC00F08BEC00F0470E53EC00F04E0E64
:1006200053EC00F0550E53EC00F05C0E53EC00F070
:10063000630E53EC00F06A0E53EC00F0710E53ECB5
:1006400000F0780E53EC00F08BEC00F0000E53EC51
:1006500000F0090E53EC00F0120E53EC00F01B0EEC
:1006600053EC00F0240E53EC00F02D0E53EC00F090
:10067000360E53EC00F03F0E53EC00F08BEC00F024
:10068000470E53EC00F04E0E53EC00F0550E53ECB9
:1006900000F05C0E53EC00F0630E53EC00F06A0EB9
:1006A00053EC00F0710E53EC00F0780E53EC00F0B8
:1006B0008BEC00F0000E53EC00F0090E53EC00F050
:1006C000120E53EC00F01B0E53EC00F0240E53EC12
:1006D00000F02D0E53EC00F0360E53EC00F03F0E00
:1006E00053EC00F08BEC00F0470E53EC00F04E0E94
:1006F00053EC00F0550E53EC00F05C0E53EC00F0A0
:10070000630E53EC00F06A0E53EC00F0710E53ECE4
:1007100000F0780E53EC00F08BEC00F0000E53EC80
:1007200000F0090E53EC00F0120E53EC00F01B0E1B
:1007300053EC00F0240E53EC00F02D0E53EC00F0BF
:10074000360E53EC00F03F0E53EC00F08BEC00F053
:10075000470E53EC00F04E0E53EC00F0550E53ECE8
:1007600000F05C0E53EC00F0630E53EC00F06A0EE8
:1007700053EC00F0710E53EC00F0780E53EC00F0E7
:100780008BEC00F0000E53EC00F0090E53EC00F07F
:10079000120E53EC00F01B0E53EC00F0240E53EC41
:1007A00000F02D0E53EC00F0360E53EC00F03F0E2F
:1007B00053EC00F08BEC00F0470E53EC00F04E0EC3
:1007C00053EC00F0550E53EC00F05C0E53EC00F0CF
:1007D000630E53EC00F06A0E53EC00F0710E53EC14
:0E07E00000F0780E53EC00F08BEC00F01200ED
:0207EE000F0DED
:1007F00007050E0C06040B0903010A0802000F018D
:10080000538D7F9C7F8E12008D6A0F0E966E640E44
:100810003CEC00F00E0E846203D0010E176E12D075
:100820000D0E846203D0020E176E0CD00B0E846284
:1008300003D0030E176E06D0070E846226D0040E76
:10084000176E00D08D6AF00E966E640E3CEC00F0D0
:10085000E00E846203D0000E172611D0D00E846201
:1008600003D0040E17260BD0B00E846203D0080EFE
:10087000172605D0700E846208D00C0E17260900CA
:0E088000172EFDD7F5CF18F01200000E120053
:02088E00AB8E2F
:10089000AC98AC94AC8A6596670EAF6E948C1200DF
:1008A0009EA8FED7AD6E1200230E50EC04F0300E61
:1008B00050EC04F0300E50EC04F00A0E50EC04F052
:0208C000120024
:020000040030CA
:0100000015EA
:0100010013EB
:010002007F7E
:010003007F7D
:01000400F902
:010005008B6F
:010006009168
:01000800FFF8
:01000900C036
:01000A00FFF6
:01000B00E014
:01000C00FFF4
:01000D0040B2
:00000001FF
