:020000040000FA
:100000008C6A8C8E8C888C8C956A958A8C90640E08
:1000100046EC00F08C80640E46EC00F03DEC00F005
:100020009CEC01F05DEC00F018EC00F016EF00F035
:10003000400E046E060E056E000EA2EC02F0050ED8
:1000400046EC00F00406055AF8E212002BEC00F032
:1000500034EC00F012008C9E800E41EC00F0065053
:1000600041EC00F08C8E12008C9E000E41EC00F0F2
:10007000075041EC00F08C8E1200689C320E676EC7
:1000800012006A6EA1AAFED7A19A1200026EFA0EA1
:100090004DEC00F0022EFBD71200006E003A0F0E5E
:1000A0000014016EF00E001657EC00F01200000E66
:0800B0000006015AFDE21200F6
:0200B800000046
:0600BA00410E066E000E6F
:1000C000076E26EC00F00B8074EC00F0E0EC00F022
:1000D000410E066E010E076E26EC00F00B9074ECDC
:1000E00000F0E0EC00F01200910E066E280E076E94
:1000F00026EC00F0920E066E000E076E26EC00F065
:10010000930E066E280E0BB0F00F076E26EC00F073
:10011000940E066E000E0BB0010F076E26EC00F079
:10012000950E066EC80E076E26EC00F0960E066E53
:10013000000E076E26EC00F0970E066EC80E0BB090
:10014000F00F076E26EC00F0980E066E000E0BB056
:10015000010F076E26EC00F0A10E066E140E076E5E
:1001600026EC00F0A20E066E000E076E26EC00F0E4
:10017000A30E066E140E076E26EC00F0A40E066E9B
:10018000000E076E26EC00F0630E066E070E076E7B
:1001900026EC00F0640E066E070E076E26EC00F0EB
:1001A000650E066E030E076E26EC00F0A00E066EBE
:1001B000A00E076E26EC00F0010E46EC00F01200D7
:1001C000910E066E320E076E26EC00F0920E066E51
:1001D000000E076E26EC00F0930E066E410E0BB07B
:1001E000F00F076E26EC00F0940E066E000E0BB0BA
:1001F000010F076E26EC00F0950E066EBE0E076E20
:1002000026EC00F0960E066E000E076E26EC00F04F
:10021000970E066E410E0BB0F00F076E26EC00F045
:10022000980E066E000E0BB0010F076E26EC00F064
:10023000A90E066E780E076E26EC00F0AA0E066E6A
:10024000000E076E26EC00F0AB0E066EB90E0BB07A
:10025000F00F076E26EC00F0AC0E066E000E0BB031
:10026000010F076E26EC00F0630E066E070E076E98
:1002700026EC00F0640E066E000E076E26EC00F011
:10028000650E066E000E076E26EC00F0900E066EF0
:10029000A10E076E26EC00F0010E46EC00F01200F5
:1002A000910E066E000E076E26EC00F0920E066EA2
:1002B000000E076E26EC00F0930E066E000E076E21
:1002C00026EC00F0940E066E010E076E26EC00F090
:1002D000950E066E1F0E076E26EC00F0960E066E4B
:1002E000030E076E26EC00F0970E066E640E076E86
:1002F00026EC00F0980E066E010E076E26EC00F05C
:10030000630E066E070E076E26EC00F0640E066E96
:10031000070E076E26EC00F0650E066E030E076EE4
:1003200026EC00F0900E066E800E076E26EC00F0B4
:10033000010E46EC00F012003BEC02F0100E066ECF
:100340000C0E076E26EC00F0040E066E810E076E92
:1003500026EC00F0010E46EC00F0140E066E630E63
:10036000076E26EC00F0150E066E000E076E26ECEA
:1003700000F0160E066E030E076E26EC00F0170E48
:10038000066E030E076E26EC00F0180E066E0B0EBE
:10039000076E26EC00F0190E066EDF0E076E26ECD7
:1003A00000F01A0E066E010E076E26EC00F01B0E12
:1003B000066E1F0E076E26EC00F01C0E066E000E79
:1003C000076E26EC00F01D0E066E160E076E26EC6C
:1003D00000F01E0E066E000E076E26EC00F01F0EDB
:1003E000066E010E076E26EC00F0300E066E000E53
:1003F000076E26EC00F0310E066E000E076E26EC3E
:1004000000F0340E066E1F0E076E26EC00F0350E5F
:10041000066E030E076E26EC00F0320E066E000E1E
:10042000076E26EC00F0330E066E000E360E066EDA
:10043000DF0E076E26EC00F0370E066E010E076E1B
:1004400026EC00F08E0E066E800E076E26EC00F095
:10045000FA0E46EC00F0FA0E46EC00F04FEC02F01B
:1004600056EC02F05DEC02F064EC02F06BEC02F092
:10047000AFEC02F01200880E066E000E0B0F076E36
:1004800026EC00F0010E46EC00F0890E066E020E1E
:10049000076E26EC00F0010E46EC00F01200010E93
:1004A000066E800E076E26EC00F01200C70E066E78
:1004B000010E076E26EC00F012008A0E066E8A0E00
:1004C000076E26EC00F012008B0E066EFF0E076E14
:1004D00026EC00F01200380E066E000E076E26ECB9
:1004E00000F0390E066E000E076E26EC00F03A0E94
:1004F000066E000E076E26EC00F03B0E066E000E38
:10050000076E26EC00F03C0E066E1F0E076E26EC02
:1005100000F03D0E066E030E076E26EC00F03E0E58
:10052000066EDF0E076E26EC00F03F0E066E010E23
:10053000076E26EC00F0520E066EC00E076E26EC1B
:1005400000F01200240E066E04C007F026EC00F046
:10055000250E066E05C007F026EC00F01200200EF6
:10056000066E800E076E26EC00F0400E066E800EC2
:08057000076E26EC00F01200FA
:020000040030CA
:0100000015EA
:0100010013EB
:010002007F7E
:010003007F7D
:01000400F902
:010005008B6F
:010006009168
:01000800FFF8
:01000900C036
:01000A00FFF6
:01000B00E014
:01000C00FFF4
:01000D0040B2
:00000001FF
