:020000040000FA
:100000008C6A8C8E8C888C8C956A958A8C90640E08
:1000100040EC00F08C80640E40EC00F037EC00F017
:10002000E0EC00F003EC01F057EC00F05EEC00F0C7
:1000300065EC00F06CEC00F073EC00F01EEF00F0EB
:1000400025EC00F02EEC00F012008C9E800E3BECB4
:1000500000F003503BEC00F08C8E12008C9E000EE2
:100060003BEC00F004503BEC00F08C8E1200689CDE
:10007000320E676E12006A6EA1AAFED7A19A120014
:10008000026EFA0E47EC00F0022EFBD71200006E53
:10009000003A0F0E0014016EF00E001651EC00F045
:0C00A0001200000E0006015AFDE21200E2
:0200AC00000052
:0200AE00010E41
:1000B000036E800E046E20EC00F01200C70E036E7B
:1000C000010E046E20EC00F012008A0E036E8A0E00
:1000D000046E20EC00F012008B0E036EFF0E046E17
:1000E00020EC00F012002BEC02F01200910E036ED7
:1000F00025EC00F0000E046E2EEC00F0920E036E64
:1001000025EC00F0000E046E2EEC00F0930E036E52
:1001100025EC00F0000E046E2EEC00F0940E036E41
:1001200025EC00F0000E046E2EEC00F0950E036E30
:1001300025EC00F01F0E046E2EEC00F0960E036E00
:1001400025EC00F0030E046E2EEC00F0970E036E0B
:1001500025EC00F0000E046E2EEC00F0980E036EFD
:1001600025EC00F0010E046E2EEC00F0630E036E21
:1001700025EC00F0000E046E2EEC00F0640E036E11
:1001800025EC00F0000E046E2EEC00F0650E036E00
:1001900025EC00F01F0E046E2EEC00F0900E036EA6
:1001A00025EC00F0B00E046E2EEC00F0FF0E40ECDB
:1001B00000F0FF0E40EC00F0FF0E40EC00F01200EB
:1001C000880E036E000E0B0F046E20EC00F0010E83
:1001D00040EC00F0890E036E020E046E20EC00F07D
:1001E000010E40EC00F0100E036E0C0E046E20ECBD
:1001F00000F0040E036E810E046E20EC00F0010E80
:1002000040EC00F01200140E036E630E046E20EC3E
:1002100000F0150E036E00500024046E20EC00F078
:10022000160E036E030E046E20EC00F0170E036E24
:10023000030E046E20EC00F0180E036E0B0E046E1D
:1002400020EC00F0190E036EDF0E046E20EC00F0BF
:100250001A0E036E010E046E20EC00F01B0E036EEE
:100260001F0E046E20EC00F01C0E036E000E046ED8
:1002700020EC00F01D0E036E160E046E20EC00F054
:100280001E0E036E000E046E20EC00F01F0E036EB7
:10029000010E046E20EC00F0300E036E000E046EB2
:1002A00020EC00F0310E036E000E046E20EC00F026
:1002B000340E036E1F0E046E20EC00F0350E036E3C
:1002C000030E046E20EC00F0320E036E000E046E7E
:1002D00020EC00F0330E036E000E360E036EDF0EC0
:1002E000046E20EC00F0370E036E010E046E20EC5D
:1002F00000F08E0E036E800E046E20EC00F0FF0EF8
:1003000040EC00F0F50E40EC00F01200910E036E90
:1003100025EC00F0000E046E2EEC00F0920E036E41
:1003200025EC00F0000E046E2EEC00F0930E036E30
:1003300025EC00F0000E046E2EEC00F0940E036E1F
:1003400025EC00F0000E046E2EEC00F0950E036E0E
:1003500025EC00F01F0E046E2EEC00F0960E036EDE
:1003600025EC00F0010E046E2EEC00F0970E036EEB
:1003700025EC00F0000E046E2EEC00F0980E036EDB
:1003800025EC00F0000E046E2EEC00F0A90E036EBA
:1003900025EC00F00A0E046E2EEC00F0AA0E036E9F
:1003A00025EC00F0000E046E2EEC00F0AB0E036E98
:1003B00025EC00F00A0E046E2EEC00F0AC0E036E7D
:1003C00025EC00F0000E046E2EEC00F0630E036EC0
:1003D00025EC00F01F0E046E2EEC00F0640E036E90
:1003E00025EC00F03F0E046E2EEC00F0650E036E5F
:1003F00025EC00F01F0E046E2EEC00F0900E036E44
:1004000025EC00F0A10E046E2EEC00F0FF0E40EC87
:1004100000F0FF0E40EC00F0FF0E40EC00F0FF0E8D
:1004200040EC00F0FF0E40EC00F0FF0E40EC00F05E
:10043000FF0E40EC00F0FF0E40EC00F0FF0E40EC31
:1004400000F0FF0E40EC00F0FF0E40EC00F0FF0E5D
:1004500040EC00F01200910E036E25EC00F0000E4F
:10046000046E2EEC00F0920E036E25EC00F0000EF0
:10047000046E2EEC00F0930E036E25EC00F0000EDF
:10048000046E2EEC00F0940E036E25EC00F0010ECD
:10049000046E2EEC00F0950E036E25EC00F01F0E9E
:1004A000046E2EEC00F0960E036E25EC00F0030EA9
:1004B000046E2EEC00F0970E036E25EC00F0640E37
:1004C000046E2EEC00F0980E036E25EC00F0010E89
:1004D000046E2EEC00F0630E036E25EC00F01F0E90
:1004E000046E2EEC00F0640E036E25EC00F03F0E5F
:1004F000046E2EEC00F0650E036E25EC00F01F0E6E
:10050000046E2EEC00F0900E036E25EC00F0800ED1
:10051000046E2EEC00F0FF0E40EC00F0FF0E40ECFD
:0C05200000F0FF0E40EC00F0FF0E120097
:020000040030CA
:0100000015EA
:0100010013EB
:010002007F7E
:010003007F7D
:01000400F902
:010005008B6F
:010006009168
:01000800FFF8
:01000900C036
:01000A00FFF6
:01000B00E014
:01000C00FFF4
:01000D0040B2
:00000001FF
