:020000040000FA
:100000008C6A8C8E8C888C8C956A958A8C90640E08
:100010005CEC00F08C80640E5CEC00F053EC00F0C3
:100020000BEC02F0700E0B6E73EC00F0610E0B6EB9
:1000300073EC00F0520E0B6E73EC00F0440E0B6E7E
:1000400073EC00F0550E0B6E73EC00F0660E0B6E49
:1000500073EC00F02EEC00F02CEF00F0400E046E7C
:10006000060E056E000E11EC03F0050E5CEC00F0C0
:100070000406055AF8E2120041EC00F04AEC00F0E8
:1000800012008C9E800E57EC00F0065057EC00F0EA
:100090008C8E12008C9E000E57EC00F0075057EC2F
:1000A00000F08C8E1200689C320E676E12006A6E31
:1000B000A1AAFED7A19A1200026EFA0E63EC00F01C
:1000C000022EFBD71200006E003A0F0E0014016ED4
:1000D000F00E00166DEC00F01200000E0006015A42
:0400E000FDE212002B
:0200E40000001A
:0A00E6000BAC1200CAEC00F00BA8EE
:1000F00001D003D00BAA04D021D00BAA10D02DD050
:10010000320E0C6E500E0D6EBE0E0E6E500E0F6E39
:10011000780E106ED20E116E40EC01F012003C0E03
:100120000C6ED20E0D6E3C0E0E6E460E0F6EB90E9C
:10013000106E8C0E116E40EC01F01200BE0E0C6EB3
:10014000C80E0D6E320E0E6EC80E0F6E780E106E4B
:100150004B0E116E40EC01F01200B40E0C6E460E08
:100160000D6EB40E0E6ED20E0F6E370E106E8C0E1C
:10017000116E40EC01F01200410E066E000E076E8B
:100180003CEC00F01200410E066E010E076E3CECD6
:1001900000F01200910E066E030E0B14F00D280EE7
:1001A000F324076E3CEC00F0920E066E000EF42075
:1001B000076E3CEC00F0930E066E3C0E0BB4C80FBD
:1001C000076E3CEC00F0940E066E000E0BB4010FAF
:1001D000076E3CEC00F0950E066E030E0B14F00D4E
:1001E000C80EF324076E3CEC00F0960E066E000E6F
:1001F000F420076E3CEC00F0970E066EDC0E0BB49C
:10020000C80F076E3CEC00F0980E066E000E0BB4A3
:10021000010F076E3CEC00F0A10E066E140E076E87
:100220003CEC00F0A20E066E000E076E3CEC00F0F7
:10023000A30E066E140E076E3CEC00F0A40E066EC4
:10024000000E076E3CEC00F0630E066E070E076EA4
:100250003CEC00F0640E066E070E076E3CEC00F0FE
:10026000650E066E030E076E3CEC00F0A00E066EE7
:10027000A00E076E3CEC00F0010E5CEC00F01200EA
:10028000910E066E030E0B14F00D0C50F324076E46
:100290003CEC00F0920E066E000EF420076E3CEC73
:1002A00000F0930E066E0D500BB4C80F076E3CECB9
:1002B00000F0940E066E000E0BB4010F076E3CECBE
:1002C00000F0950E066E030E0B14F00D0E50F32485
:1002D000076E3CEC00F0960E066E000EF420076EE2
:1002E0003CEC00F0970E066E0F500BB4C80F076E73
:1002F0003CEC00F0980E066E000E0BB4010F076E7A
:100300003CEC00F0A90E066E030E0B14F00D10501D
:10031000F324076E3CEC00F0AA0E066E000EF420EB
:10032000076E3CEC00F0AB0E066E11500BB4C80F1C
:10033000076E3CEC00F0AC0E066E000E0BB4010F25
:10034000076E3CEC00F0630E066E070E076E3CEC89
:1003500000F0640E066E000E076E3CEC00F0650EB9
:10036000066E000E076E3CEC00F0900E066EA10EBD
:10037000076E3CEC00F0010E5CEC00F01200910EF8
:10038000066E000E076E3CEC00F0920E066E000E3C
:10039000076E3CEC00F0930E066E000E076E3CEC10
:1003A00000F0940E066E010E076E3CEC00F0950E08
:1003B000066E1F0E076E3CEC00F0960E066E030EE6
:1003C000076E3CEC00F0970E066E640E076E3CEC78
:1003D00000F0980E066E010E076E3CEC00F0630E06
:1003E000066E070E076E3CEC00F0640E066E070EFC
:1003F000076E3CEC00F0650E066E030E076E3CECDB
:1004000000F0900E066E800E076E3CEC00F0010EC0
:100410005CEC00F01200AAEC02F0100E066E0C0E5E
:10042000076E3CEC00F0040E066E810E076E3CEC8D
:1004300000F0010E5CEC00F0140E066E630E076E09
:100440003CEC00F0150E066E000E076E3CEC00F062
:10045000160E066E030E076E3CEC00F0170E066ECD
:10046000030E076E3CEC00F0180E066E0B0E076EC6
:100470003CEC00F0190E066EDF0E076E3CEC00F04F
:100480001A0E066E010E076E3CEC00F01B0E066E97
:100490001F0E076E3CEC00F01C0E066E000E076E81
:1004A0003CEC00F01D0E066E160E076E3CEC00F0E4
:1004B0001E0E066E000E076E3CEC00F01F0E066E60
:1004C000010E076E3CEC00F0300E066E000E076E5B
:1004D0003CEC00F0310E066E000E076E3CEC00F0B6
:1004E000340E066E1F0E076E3CEC00F0350E066EE5
:1004F000030E076E3CEC00F0320E066E000E076E27
:100500003CEC00F0330E066E000E360E066EDF0E6B
:10051000076E3CEC00F0370E066E010E076E3CECE9
:1005200000F08E0E066E800E076E3CEC00F0FA0EA8
:100530005CEC00F0FA0E5CEC00F0BEEC02F0C5ECF6
:1005400002F0CCEC02F0D3EC02F0DAEC02F01EEC9C
:1005500003F01200880E066E000E0B0F076E3CECC7
:1005600000F0010E5CEC00F0890E066E020E076EC4
:100570003CEC00F0010E5CEC00F01200010E066E87
:10058000800E076E3CEC00F01200C70E066E010EE6
:10059000076E3CEC00F012008A0E066E8A0E076EA3
:1005A0003CEC00F012008B0E066EFF0E076E3CEC6A
:1005B00000F01200380E066E000E076E3CEC00F0E4
:1005C000390E066E000E076E3CEC00F03A0E066E19
:1005D000000E076E3CEC00F03B0E066E000E076E40
:1005E0003CEC00F03C0E066E1F0E076E3CEC00F07B
:1005F0003D0E066E030E076E3CEC00F03E0E066EDE
:10060000DF0E076E3CEC00F03F0E066E010E076E2B
:100610003CEC00F0520E066EC00E076E3CEC00F093
:100620001200240E066E04C007F03CEC00F0250E0C
:10063000066E05C007F03CEC00F01200200E066EBE
:10064000800E076E3CEC00F0400E066E800E076ECA
:060650003CEC00F012007A
:020000040030CA
:0100000015EA
:0100010013EB
:010002007F7E
:010003007F7D
:01000400F902
:010005008B6F
:010006009168
:01000800FFF8
:01000900C036
:01000A00FFF6
:01000B00E014
:01000C00FFF4
:01000D0040B2
:00000001FF
