:020000040000FA
:100000008C6A8C8E8C888C8C956A958A8C90640E08
:100010003EEC00F08C80640E3EEC00F035EC00F01D
:100020004FEC01F0000E55EC00F06FEC02F0C10E49
:1000300055EC00F07DEC02F01CEF00F023EC00F03A
:100040002CEC00F012008C9E800E39EC00F0005079
:1000500039EC00F08C8E12008C9E000E39EC00F012
:10006000015039EC00F08C8E1200689C320E676EE5
:1000700012006A6EA1AAFED7A19A1200116EFA0EA2
:1000800045EC00F0112EFBD712000F6E0F3A0F0E49
:100090000F14106EF00E0F164FEC00F01200000E51
:0800A0000F06105AFDE21200E8
:0200A800000056
:0600AA00036E03AC28D038
:1000B0002ED003AE33D0C00E0C6E070E0314640DA9
:1000C0000A0EF324086E0A6E000EF420046E066E0B
:1000D000500E0A26000E0622034203420340070B7D
:1000E000320D140EF324096E0B6E000EF420056E13
:1000F000076E0A0E0B26000E072290EC00F012008D
:10010000410E006E000E016E1EEC00F0D2D7410EC3
:10011000006E010E016E1EEC00F0CBD7070ECCD79F
:10012000910E006E08C001F01EEC00F0920E006E01
:1001300004C001F01EEC00F0930E006E09C001F047
:100140001EEC00F0940E006E05C001F01EEC00F0F5
:10015000950E006E0AC001F01EEC00F0960E006EC7
:1001600006C001F01EEC00F0970E006E0BC001F00F
:100170001EEC00F0980E006E07C001F01EEC00F0BF
:10018000A10E006E020E016E1EEC00F0A20E006EBB
:10019000000E016E1EEC00F0A30E006E020E016E4A
:1001A0001EEC00F0A40E006E000E016E1EEC00F0BE
:1001B000630E006E070E0C14016E1EEC00F0640E50
:1001C000006E0C420C420C42070E0C14016E1EEC29
:1001D00000F0650E006E0C420C42030E0C14016E12
:1001E0001EEC00F0A00E006EE00E016E1EEC00F0A2
:1001F000010E3EEC00F01200910E006E000E016E3A
:100200001EEC00F0920E006E000E016E016E1EECF0
:1002100000F0930E006E000E016E016E1EEC00F0F9
:10022000940E006E000E016E016E1EEC00F0950E35
:10023000006E1F0E016E016E1EEC00F0960E006E39
:10024000030E016E016E1EEC00F0970E006EDF0EC5
:10025000016E016E1EEC00F0980E006E010E016E34
:10026000016E1EEC00F0630E006E070E016E1EECB8
:1002700000F0640E006E070E016E1EEC00F0650EBD
:10028000006E030E016E1EEC00F0900E006E800EEC
:10029000016E1EEC00F0010E3EEC00F01200EEECE0
:1002A00001F0100E006E0C0E016E1EEC00F0040E3C
:1002B000006E810E016E1EEC00F0010E3EEC00F0AF
:1002C000140E006E630E016E1EEC00F0150E006E33
:1002D000000E016E1EEC00F0160E006E030E016E95
:1002E0001EEC00F0170E006E030E016E1EEC00F007
:1002F000180E006E0B0E016E1EEC00F0190E006E53
:10030000DF0E016E1EEC00F01A0E006E010E016E83
:100310001EEC00F01B0E006E1F0E016E1EEC00F0B6
:100320001C0E006E000E016E1EEC00F01D0E006E25
:10033000160E016E1EEC00F01E0E006E000E016E19
:100340001EEC00F01F0E006E010E016E1EEC00F0A0
:10035000300E006E000E016E1EEC00F0310E006ECD
:10036000000E016E1EEC00F0340E006E1F0E016ECA
:100370001EEC00F0350E006E030E016E1EEC00F058
:10038000320E006E000E016E1EEC00F0330E006E99
:10039000000E360E006EDF0E016E1EEC00F0370E02
:1003A000006E010E016E1EEC00F08E0E006E800ECF
:1003B000016E1EEC00F0FA0E3EEC00F0FA0E3EEC80
:1003C00000F002EC02F009EC02F010EC02F017EC85
:1003D00002F01EEC02F062EC02F01200880E006ED9
:1003E000000E0B0F016E1EEC00F0010E3EEC00F053
:1003F000890E006E020E016E1EEC00F0010E3EEC46
:1004000000F01200010E006E800E016E1EEC00F076
:100410001200C70E006E010E016E1EEC00F01200FD
:100420008A0E006E8A0E016E1EEC00F012008B0E1A
:10043000006EFF0E016E1EEC00F01200380E006E12
:10044000000E016E1EEC00F0390E006E000E016E03
:100450001EEC00F03A0E006E000E016E1EEC00F075
:100460003B0E006E000E016E1EEC00F03C0E006EA6
:100470001F0E016E1EEC00F03D0E006E030E016EAD
:100480001EEC00F03E0E006EDF0E016E1EEC00F062
:100490003F0E006E010E016E1EEC00F0520E006E5B
:1004A000C00E016E1EEC00F01200260E006E0DC094
:1004B00001F01EEC00F0270E006E0EC001F01EECE5
:1004C00000F01200200E006E800E016E1EEC00F097
:1004D000400E006E800E016E1EEC00F01200DF0E6A
:1004E0000D6E010E0E6E000E55EC02F0050E3EEC88
:1004F00000F00D060E5AF8E21200BF0E0D6E030E4C
:100500000E6E000E55EC02F0050E3EEC00F00D06EE
:100510000E5AF8E212008E0E006EC00E016E1EEC36
:0405200000F01200D5
:020000040030CA
:0100000015EA
:0100010013EB
:010002007F7E
:010003007F7D
:01000400F902
:010005008B6F
:010006009168
:01000800FFF8
:01000900C036
:01000A00FFF6
:01000B00E014
:01000C00FFF4
:01000D0040B2
:00000001FF
