:020000040000FA
:100000008C6A956A958A8C8E8C90640E3EEC00F01A
:100010008C80640E3EEC00F035EC00F0C6EC00F095
:10002000E9EC00F055EC00F05CEC00F063EC00F063
:100030006AEC00F071EC00F01CEF00F023EC00F033
:100040002CEC00F012008C9E800E39EC00F0000EBB
:1000500039EC00F08C8E12008C9E000E39EC00F012
:10006000010E39EC00F08C8E1200689C320E676E27
:1000700012006A6EA1AAFED7A19A1200046EFA0EAF
:1000800045EC00F0042EFBD71200026E023A0F0E70
:100090000214036EF00E02164FEC00F01200000E78
:0800A0000206035AFDE2120002
:0200A800000056
:0600AA00010E056E800E40
:1000B000066E1EEC00F01200C70E056E010E066EF5
:1000C0001EEC00F012008A0E056E8A0E066E1EEC03
:1000D00000F012008B0E056EFF0E066E1EEC00F097
:1000E000120074EC00F01200910E23EC00F0000EF0
:1000F0002CEC00F0920E23EC00F0000E2CEC00F043
:10010000930E23EC00F0000E2CEC00F0940E23EC88
:1001100000F0000E2CEC00F0950E23EC00F01F0E0A
:100120002CEC00F0960E23EC00F0030E2CEC00F00B
:10013000970E23EC00F0DF0E2CEC00F0980E23EC71
:1001400000F0010E2CEC00F0630E23EC00F01F0E0B
:100150002CEC00F0640E23EC00F03F0E2CEC00F0D1
:10016000650E23EC00F01F0E2CEC00F0900E23EC3B
:1001700000F0B00E2CEC00F0FF0E3EEC00F0FF0E95
:100180003EEC00F0FF0E3EEC00F01200880E056E13
:10019000000E0B0F066E1EEC00F0010E3EEC00F0A0
:1001A000890E056E020E066E1EEC00F0010E3EEC8E
:1001B00000F0100E056E0C0E066E1EEC00F0040E24
:1001C000056E810E066E1EEC00F0010E3EEC00F096
:1001D0001200140E056E630E066E1EEC00F0150E76
:1001E000056E00500024066E1EEC00F0160E056E23
:1001F000030E066E1EEC00F0170E056E030E066E63
:100200001EEC00F0180E056E0B0E066E1EEC00F0D4
:10021000190E056EDF0E066E1EEC00F01A0E056E4E
:10022000010E066E1EEC00F01B0E056E1F0E066E14
:100230001EEC00F01C0E056E000E066E1EEC00F0AB
:100240001D0E056E160E066E1EEC00F01E0E056EDF
:10025000000E066E1EEC00F01F0E056E010E066EFF
:100260001EEC00F0300E056E000E066E1EEC00F067
:10027000310E056E000E066E1EEC00F0340E056E9B
:100280001F0E066E1EEC00F0350E056E030E066E98
:100290001EEC00F0320E056E000E066E1EEC00F035
:1002A000330E056E000E360E056EDF0E066E1EEC6A
:1002B00000F0370E056E010E066E1EEC00F08E0E7D
:1002C000056E800E066E1EEC00F0FF0E3EEC00F098
:0802D000F50E3EEC00F01200F7
:020000040030CA
:0100000015EA
:0100010013EB
:010002007F7E
:010003007F7D
:01000400F902
:010005008B6F
:010006009168
:01000800FFF8
:01000900C036
:01000A00FFF6
:01000B00E014
:01000C00FFF4
:01000D0040B2
:00000001FF
